:1000000000000420E1020000090300009D7A0000C6
:100010000D0300000F0300001103000000000000AA
:1000200000000000000000000000000013030000BA
:100030001503000000000000170300001903000072
:10004000199F00001B03000065A0000069A20000CA
:100050001B0300001B030000A19700001B0300000E
:100060001B0300001B0300001B0300001B03000018
:100070001B0300001B0300001B0300001B03000008
:100080001B030000897A00001B0300001B03000013
:100090001B0300001B0300001B0300001B030000E8
:1000A0001B0300001B0300001B0300001B030000D8
:1000B0001B0300001B030000000000000000000004
:1000C0001B0300001B0300001B0300001B030000B8
:1000D0001B0300001B0300001B030000E1D700000E
:1000E0001B03000005A100001B030000000000002E
:1000F000000000001B03000000000000A5A100009C
:1001000000000000000000000000000000000000EF
:1001100000000000000000000000000000000000DF
:1001200000000000000000000000000000000000CF
:1001300000000000000000000000000000000000BF
:1001400000000000000000000000000000000000AF
:10015000000000000000000000000000000000009F
:10016000000000000000000000000000000000008F
:10017000000000000000000000000000000000007F
:10018000000000000000000000000000000000006F
:10019000000000000000000000000000000000005F
:1001A000000000000000000000000000000000004F
:1001B000000000000000000000000000000000003F
:1001C000000000000000000000000000000000002F
:1001D000000000000000000000000000000000001F
:1001E000000000000000000000000000000000000F
:1001F00000000000000000000000000000000000FF
:1002000010B5054C237833B9044B13B10448AFF350
:1002100000800123237010BD200200200000000098
:10022000A86001000C4B43B10C480D4910B5AFF369
:1002300000800C48036823B910BD0A48036833B92D
:100240007047094B002BF7D0BDE810401847064B0C
:10025000002BF5D0184700BF00000000A860010087
:10026000240200201802002000000000154B002B83
:1002700008BF134B9D46A3F5803A00218B460F46DD
:100280001348144A121A12F065FE0F4B002B00D0CF
:1002900098470E4B002B00D0984700200021040007
:1002A0000D000D48002802D00C48AFF3008012F07A
:1002B000F3FD2000290012F037FC12F0D9FD00BF39
:1002C0000000080000000420000000000000000002
:1002D00020020020481F0020000000000000000055
:1002E0000649074A074B9B1A03DD043BC858D05008
:1002F000FBDC12F08FF9FFF7B9FF00005861010035
:100300000000002020020020FEE7FEE7FEE7FEE7F7
:10031000FEE7FEE7FEE7FEE7FEE7FEE7F0B595B095
:10032000002415460F4608461E4608F0BDFB384619
:1003300023460C22089505A91A9D09960D950A9445
:100340008DF82C400C9408F02BFC9DF81430079885
:1003500006998DF8114003F00302012A02900391DF
:1003600028D0022A04D0384608F0A2FB15B0F0BD10
:10037000BDF81650C3F3C2038DF81030C5F38915CC
:100380000C26082D2C4628BF0824334622460EA9E9
:10039000384608F005FC2D1B214608AB02AA0EA822
:1003A000264401F061F8002DEBD1384608F080FBBF
:1003B00015B0F0BDBDF81460059DC6F38316C3F3F8
:1003C000C204B2000EA938460C238DF81040C5F3C4
:1003D000952508F0E5FB08AB0093324628460EA9A8
:1003E00002AB00F0CBFFBEE7014B01221A70704751
:1003F00080020020704700BF00B583B0044B00931B
:10040000044A4023FFF78AFF03B05DF804FB00BFF6
:10041000190400004002002038B50F480F4D037842
:100420000F4CEB5C00252570D2B253B90C300AF0AA
:1004300039FF58B90B4B1B7813B12378002BFCD034
:1004400038BD04300BF0A0FA0028F3D0064A53213F
:1004500001F0F4FBEEE700BF00000020581E002072
:10046000800200203C0200209C3C010070B5144832
:10047000144A0378D35C88B0EBB90C300AF068FEFC
:10048000114D0FCD6C460FC495E80F0008AD062640
:1004900045F8206D84E80F0029460022084808F03E
:1004A0002DFE18B1094A432101F0C8FB084B002278
:1004B0001A7008B070BD04300BF09EF9E0E700BF81
:1004C00000000020581E0020703C01009C3C0100F0
:1004D0003C02002070B50E4D0FCD88B06C460FC4A5
:1004E00095E80F0008AD062645F8206D84E80F005A
:1004F0002946084A084808F001FE18B1074A432176
:1005000001F09CFB064B01221A7008B070BD00BFC1
:10051000703C0100E9030000000000209C3C010049
:100520003C02002008B5FFF7D5FF0421084800F081
:100530005FFE002803DB074B01225A7108BD064904
:10054000482007F069FB034B01225A7108BD00BF28
:100550002C610100140000200C3D0100F0B5364D67
:1005600085B005F5836007F041FC05F2144007F003
:100570003DFC6B68AE6803EA0600C11C05EB810216
:1005800015F8214014F004040ED0117801F0030195
:1005900001293BD0022903F1030700F1030126D012
:1005A00005EB8102002CF0D105EB80005A1CC168DC
:1005B0000191324005EB820201F00301D268029200
:1005C000012903F1030427D002292DD1BDF80630FB
:1005D000BDF80A60C3F38913033304EB930417488F
:1005E00007F012FC00B16C60304605B0F0BD5388D6
:1005F00007EB931306EA0300C11C05EB810215F813
:10060000214004F00404002CBFD1CDE7118803334E
:10061000C1F383110B44EDE7BDF80430BDF80A6067
:10062000C3F383131C44DAE705494FF4BF7007F0A6
:10063000F3FA0026D3E700BF540300206807002028
:10064000943D010038B5E8B1104C0023FF22054667
:100650000846C4F81834A26023606360C4F81434F8
:1006600084F8203400F07CFF0948C4F80C5408F0EA
:10067000D1F9044608B1204638BD064808F0E6FA2C
:10068000204638BD0724204638BD00BF5403002053
:100690003C610100003E010021B9114B03EBC00099
:1006A0000068704730B40F4A0D4C121BD2080CD0B2
:1006B0000D4D2B88834210D0002303E035F8231022
:1006C000814205D001339A42F8D1002030BC7047F6
:1006D00004EBC300006830BC70472046FAE700BF57
:1006E000AC6001002C6101001C020020094B0139A3
:1006F00003EBC00003290BD8DFE801F00208060471
:100700000220704740797047007970470420704795
:1007100000207047AC6001002DE9F047C24C94E81E
:100720000C009A4284B000F02E810023C4F81834E3
:10073000BFF34F8F6368A56803EA0501CA1C04EB89
:10074000820614F8222050071CD52768327802F060
:100750000302012A00F0B980022A03F1030202D148
:10076000738802EB931305EA0301D4F81804CA1C3A
:1007700004EB820630B99F4240F2AD8014F822208B
:100780005207E3D404EB8101581C9A1CCE680196F1
:1007900028402A4004EB800104EB820206F00306A5
:1007A000C968D2680291022E039203F1030800F097
:1007B0009680012E00F0EB80D4F810543DB12B68E8
:1007C00028469B689847EB681D68002DF7D10020EC
:1007D000A66806F00DFFA26863682768134401331A
:1007E000DB1B022B00F24B81904D0121284607F0C4
:1007F000D1FAFFF7B3FE0146284607F0CBFA94E89A
:100800000A00A268134401335B1A022BEDD901EAF6
:1008100002030333052203316FF38912002044F8E9
:100820002320DFF820922160814D06F0FBFE7F48F7
:10083000002107F095FA80F310087E4BA5EB09051F
:10084000C5F3CF05A3EB0903B5EBD30F80F01181FE
:100850007B1C334004EB830345EA0845DD60D4F894
:100860000C34BD1C9847354004EB850506EA0703A8
:100870000333E86014F823206F48022161F3C502B6
:1008800004F8232034F823206FF3891224F823205E
:1008900054F8231060F39F210A46012060F30102FF
:1008A0006FF3820244F8231004F8232094F82034D4
:1008B0001BB1FFF731FF0028FBD160682368C01A25
:1008C00018BF012004B0BDE8F08732880333C2F3BB
:1008D0008312134447E7676004B0BDE8F087BDF8B2
:1008E00006305648C3F389194F46502FA8BF5027EA
:1008F00067F38F1307F10C01ADF8063008F08CF8A0
:10090000064600283FF458AF25EA080A0AF1010A12
:1009100008F0CAF84FEA8A0A00230C2201A93046DF
:1009200008F0E8F857456FD9BAF1000F40F08C8015
:100930003A460C234249304608F0DCF809F1030737
:1009400008EB9707D4F81834002B68D1D4F810546A
:100950005DB1EB685A79314628461AB12B681B689D
:100960009847EB681D68002DF3D1304608F0A0F8D9
:10097000002006F03DFED4F8183403B9676000206B
:1009800006F050FE99E7002004B0BDE8F087BDF8FE
:1009900004302A48C3F38312062A28BF0622D11C3A
:1009A00062F389138900ADF8043008F035F8064683
:1009B00000283FF401AF08F077F800230C2201A9CA
:1009C000304608F097F8BDF8043013F4707F58D023
:1009D0004FF0000A4FF00C0905EA080103314B46BD
:1009E00004EB81010422304608F084F8BDF804309D
:1009F0000AF1010AC3F3831308F10107534509F112
:100A00000409B846E8D89DE705EA0801033104EB7C
:100A100081013A460C23304608F06CF88EE73046E8
:100A200008F046F849E700BF540300207007002093
:100A3000E46001002C6101000C3E01003C610100FA
:100A400060030020AC60010005EA08010331A7EB58
:100A50000A0504EB810152463046EDB20C2308F042
:100A600049F82A460AF10C030749304608F042F8D3
:100A700064E7064940F2A31007F0CEF8E8E63946ED
:100A8000C5E647465EE700BF60030020943D0100D5
:100A90002DE9F047DFF80C91074600208846D9F889
:100AA000085006F0A5FDD9F80820D9F80430D9F887
:100AB0000060134401339B1B022B68D809F21C44CD
:100AC0000121204607F066F9FFF748FD0146204660
:100AD00007F060F999E80A00D9F8082013440133B7
:100AE0005B1A022BECD90A40033205236FF38913FA
:100AF00049F8223003310020C9F8001006F092FDB9
:100B00000021244807F02CF980F3100A224B234AD5
:100B10003C0C9B1AB4EBD30F33D2731C2B4009EB64
:100B2000830344EA0A44DC60D9F80C34B41C9847C7
:100B30002C4009EB840435400335E06019F825307A
:100B400067F3C50309F8253039F825306FF38913A9
:100B500029F8253059F8252068F39F2213460121F2
:100B600061F301036FF3820349F8252009F825306A
:100B700099F820341BB1FFF7CFFD0028FBD1BDE869
:100B8000F087074940F2A31007F046F8C5E7314661
:100B9000A9E700BF700700202C610100AC600100D4
:100BA000943D0100540300202DE9F047DFF81CA11B
:100BB0000746002090468946DAF8085006F018FDEE
:100BC000DAF80820DAF80430DAF800601344013368
:100BD0009B1B032B70D80AF21C440121204607F00E
:100BE000D9F8FFF7BBFC0146204607F0D3F89AE896
:100BF0000A00DAF80820134401335B1A032BECD9FE
:100C000001200A40033240F0040360F389134AF8DC
:100C1000223004310020CAF8001006F003FDF31C56
:100C20002B400AEB830300212448C3F80C8007F013
:100C300097F880F31008224B224A3C0C9B1AB4EB25
:100C4000D30F33D2731C2B400AEB830344EA0844CE
:100C5000DC60DAF80C34B41C98472C400AEB8404AE
:100C600035400335E0601AF8253067F3C5030AF80C
:100C700025303AF82530012161F389132AF825300F
:100C80005AF8252069F39F22134661F301036FF39D
:100C900082034AF825200AF825309AF820341BB13F
:100CA000FFF73AFD0028FBD1BDE8F087064940F286
:100CB000A31006F0B1FFC5E73146A1E77007002099
:100CC0002C610100AC600100943D01005403002040
:100CD0002DE9F84F444C8046002093469A468946B9
:100CE000A66806F085FCA268636827681344013390
:100CF000DB1B042B75D804F21C450121284607F0A4
:100D000049F8FFF72BFC0146284607F043F894E822
:100D10000A00A268134401335B1A042BEDD90A4080
:100D2000033205230220194460F3891344F822306A
:100D30000020216006F076FCFA1C3B1D3240334057
:100D400004EB820204EB830300212848C2F80CB0B4
:100D5000C3F80CA007F004F880F3100A244B254ACE
:100D60004FEA18459B1AB5EBD30F34D27B1C3340A6
:100D700004EB830345EA0A45DD60D4F80C34BD1C5E
:100D80009847354004EB85053E400336E86014F88B
:100D9000263068F3C50304F8263034F826300222E2
:100DA00062F3891324F8263054F8262069F39F2231
:100DB0001346012161F301036FF3820344F82620F7
:100DC00004F8263094F820341BB1FFF7A5FC002866
:100DD000FBD1BDE8F88F084940F2A31006F01CFFD4
:100DE000C4E739469BE700BF54030020700700208A
:100DF0002C610100AC600100943D01002DE9F84F29
:100E0000474C8046002093469A46A668894606F0DD
:100E1000EFFBA2686368276813440133DB1B052BD3
:100E20007BD804F21C450121284606F0B3FFFFF7EA
:100E300095FB0146284606F0ADFF94E80A00A2683B
:100E4000134401335B1A052BEDD90A40033203200A
:100E5000052360F3891344F8223006310020216015
:100E6000FD1C06F0DFFB3A1D7B1D3540324004EBD4
:100E7000850504EB8202334004EB8303C5F80CB014
:100E80000021C2F80CA027480A9ADA6006F068FF31
:100E900080F3100A244B254A4FEA18459B1AB5EBFC
:100EA000D30F34D27B1C334004EB830345EA0A455D
:100EB000DD60D4F80C34BD1C9847354004EB850543
:100EC0003E400336E86014F8263068F3C50304F8A2
:100ED000263034F82630032262F3891324F82630B2
:100EE00054F8262069F39F221346012161F3010380
:100EF0006FF3820344F8262004F8263094F8203457
:100F00001BB1FFF709FC0028FBD1BDE8F88F0849A9
:100F100040F2A31006F080FEC4E7394695E700BF13
:100F200054030020700700202C610100AC60010018
:100F3000943D01002DE9F04F85B04E4C0E9DA66802
:100F400002958DE80C008046994600200F9B039384
:100F500092468B4606F04CFBA268636827681344F0
:100F60000133DB1B062B00F2838004F21C450121B8
:100F7000284606F00FFFFFF7F1FA0146284606F073
:100F800009FF94E80A00A268134401335B1A062B98
:100F9000EDD90A4003320420052360F38913073199
:100FA000002044F822303D1D216006F03BFBF81C78
:100FB0007A1D3040354004EB800004EB8505BB1DF5
:100FC000324004EB82023340C0F80CA004EB8303F0
:100FD000C5F80C900E9DD56000210F9A2648DA6066
:100FE00006F0BEFE80F31009244B254A4FEA18454F
:100FF0009B1AB5EBD30F35D27B1C334004EB830334
:1010000045EA0945DD60D4F80C34BD1C98473540ED
:1010100004EB85053E400336E86014F8263068F39B
:10102000C50304F8263034F82630042262F389130D
:1010300024F8263054F826206BF39F221346012112
:1010400061F301036FF3820344F8262004F826308D
:1010500094F820341BB1FFF75FFB0028FBD105B0EB
:10106000BDE8F08F074940F2A31006F0D5FDC3E7B5
:1010700039468EE754030020700700202C610100E0
:10108000AC600100943D01002DE9F04F87B0534C56
:1010900002939946119B109D04938046129B0192E6
:1010A000002092460593A66803958B4606F0A0FAA9
:1010B000A2686368276813440133DB1B072B00F227
:1010C0008B8004F21C450121284606F063FEFFF7E1
:1010D00045FA0146284606F05DFE94E80A00A2683B
:1010E000134401335B1A072BEDD90A400332052361
:1010F000083163F38913002044F822307D1D2160FC
:1011000006F090FAF91C07F1040EBA1DFB1D3140E0
:101110000EEA060E3540334004EB810104EB8E0EDF
:1011200004EB8505324004EB820204EB830C109B38
:10113000C1F80CA0CEF80C90EB60119BD36000219D
:10114000129B2748CCF80C3006F00AFE80F31009F9
:10115000244B254A4FEA18459B1AB5EBD30F35D2DD
:101160007B1C334004EB830345EA0945DD60D4F87A
:101170000C34BD1C9847354004EB85053E400336D2
:10118000E86014F8263068F3C50304F8263034F814
:101190002630052262F3891324F8263054F82620DD
:1011A0006BF39F221346012161F301036FF3820366
:1011B00044F8262004F8263094F820341BB1FFF7B9
:1011C000ABFA0028FBD107B0BDE8F08F074940F229
:1011D000A31006F021FDC3E7394686E7540300203B
:1011E000700700202C610100AC600100943D0100FB
:1011F00030B4174DD5F8104400215CB1E3681A797A
:101200008A4204D116E0DB681A798A4212D01B6840
:10121000002BF8D1C3681971D5F8103493B1DA688E
:10122000C36812681A60D5F81034DB681860084685
:1012300030BC704701310A29DFD14FF0FF31084639
:1012400030BC7047C5F81004C2681360EFE700BFF8
:101250005403002038B5094BD3F81044012583F816
:1012600020544CB1E3685D71236820465B68984761
:10127000E3681C68002CF5D138BD00BF5403002082
:10128000F0B5C38885B004460D46002B46D1217ABF
:1012900005294DD0637A002B4CD12C4B2C492D4A7B
:1012A0001E6808682168B1FBF0F0B0FBF6F1A2FB04
:1012B00001324FF4616ED70A274B0EFB1717A3FBC1
:1012C00007E306FB11015B094FF47A70C3EB031EC1
:1012D00000FB01F1A7EB8E07B1FBF6FE06FB1E112A
:1012E00000FB01F1CDF804E0B1FBF6F62846D20A86
:1012F00000971A49029606F0D7FF194B227AA08868
:1013000053F822400021FFF7C7F916490346224649
:10131000284605B0BDE8F04006F0C6BF124A00926C
:101320001249134A284606F0BFFF217A0529B1D198
:1013300005B0F0BDA088FFF7D9F90E4B0E4953F860
:101340002020284606F0B0FFA7E700BF10080020C5
:1013500014080020C5B3A29189888888843E0100C2
:10136000AC3E0100A03E0100783E0100603E01005D
:10137000583E0100243E0100803E01002DE9F0436B
:1013800085B01D460C9C002381460E46174694F8F6
:101390000C80237321462846FFF772FF062F0FD8D3
:1013A000DFE807F034393F46044F2500F168B068A4
:1013B00096E80C00019100904946204606F074FF23
:1013C0002B7A052B05D06B7A5BB92449204606F0B1
:1013D0006BFF204606F054FF84F80C8005B0BDE892
:1013E000F0831F4A1F49204606F05EFFEDE7706953
:1013F000316996E80C000390B068F76802918DE8B7
:1014000081004946204606F04FFFD9E7494620466D
:1014100006F04AFFD4E732684946204606F044FF0A
:10142000CEE7494696E80C00204606F03DFFC7E7A8
:10143000B16896E80C0020460091494606F034FF5A
:10144000BEE7B068F768316996E80C0002918DE854
:1014500081004946204606F027FFB1E7A45C010061
:10146000783E0100803E0100082900D970472DE92F
:10147000F04F1D4683B000241B7B2C7307460E469D
:101480001046294691460193FFF7FAFEDFF8C0A007
:10149000DFF8C080A6424146284639D93A5D01347A
:1014A00006F002FF082CF5D12549DFF8ACA0DFF8E3
:1014B000AC80284606F0F8FE00240CE017F804B0D3
:1014C000BBF17E0F2CD92E2241462846013406F06E
:1014D000EBFE082C08D0A642F0D85146284601342D
:1014E00006F0E2FE082CF6D199F80830052B02D060
:1014F00099F80930EBB91349284606F0D5FE28467D
:1015000006F0BEFE9DF804302B7303B0BDE8F08FEB
:1015100001345146284606F0C7FE082CBAD1C3E76D
:1015200011F0DEFC58445A46437813F0970FCAD0A6
:10153000CAE7054A0549284606F0B6FEDBE700BFC4
:10154000503E0100A45C0100783E0100803E010095
:10155000DC5B0100483E0100A83E0100543E010052
:10156000074A0849012390420B6005D94008904280
:101570004FEA4303FAD80B60034B1860704700BF73
:1015800040420F001408002010080020032810B566
:10159000044603D90E493A2006F03EFB0D4B1C5D74
:1015A0002F2C234604D81F2C07D84FF0A04207E069
:1015B000094940F2CD1006F02FFB084A04F01F0342
:1015C000D2F80405D840C04300F0010010BD00BFB0
:1015D000103F0100C03F0100683F010000030050C0
:1015E000032810B5044603D90F49412006F014FB27
:1015F0000E4B1C5D2F2C224608D81F2C0BD84FF009
:10160000A04101239340C1F80C3510BD084940F2B8
:10161000CD1006F001FB04F01F02064901239340A0
:10162000C1F80C3510BD00BF103F0100C03F0100E4
:10163000683F010000030050032810B5044603D999
:101640000F49472006F0E8FA0E4B1C5D2F2C22466E
:1016500008D81F2C0BD84FF0A04101239340C1F8AC
:10166000083510BD084940F2CD1006F0D5FA04F057
:101670001F02064901239340C1F8083510BD00BF81
:10168000103F0100C03F0100683F0100000300500F
:101690004FF0A04310B44FF480404FF400544FF487
:1016A00000414FF48032C3F80845C3F80805C3F879
:1016B0000815C3F808255DF8044B70474FF0A043A8
:1016C00010B44FF480404FF400544FF400414FF4F5
:1016D0008032C3F80C45C3F80C05C3F80C15C3F8E9
:1016E0000C255DF8044B7047032810B5044603D958
:1016F00010495F2006F090FA0F4B1C5D2F2C2046FE
:1017000004D81F2C07D84FF0A04107E00B4940F246
:10171000CD1006F081FA0A4904F01F00D1F8043513
:101720000122824022EA03001340C1F80805C1F8F3
:101730000C3510BD103F0100C03F0100683F0100A3
:10174000000300500B2809D00C2809D0182809D014
:1017500019280CBF03204FF0FF307047002070475E
:101760000120704702207047C20770B40ED483076F
:101770000AD54FF0A0430C22C3F82C27C3F830271A
:10178000C3F86027C3F8642770BC70474FF0A043CC
:1017900003224FF400564FF480454FF400444FF4B9
:1017A0008031C3F83427C3F83827C3F83C27C3F87F
:1017B0004027C3F80865C3F80855C3F80845C3F8BF
:1017C0000815D4E770B51C4B1D789DB11B4B1C68E8
:1017D0002378C0B2984214D004F10802002306E036
:1017E00014F833108142164602F108020AD0013380
:1017F000AB42F5D11249882006F00EFA00231B787F
:10180000FFDE264607F0A4FF7378A3F10103B3FAC5
:1018100083F35B09834200D070BD0A4BD3E90023F8
:101820001343F9D1084B0948196800224908BDE85B
:10183000704002F00DB800BF1808002068080020B2
:10184000C43F0100400800201C08002020080020A0
:101850002DE9F04F9C4E337885B0002B00F030819D
:10186000DFF87C92994F9A4D4FF0000B4FF0010832
:101870003C6814F83B0007F06BFF04EBCB0314F853
:101880003B405B784FEA540E14F0010C15F80E1033
:10189000A3F10103B3FA83F314BF0A0901F00F02A5
:1018A0005B09042A00F2A280DFE802F0715F3120B8
:1018B0000300984240F09C80BCF1000F0CBFF02365
:1018C0000F2303EA01030CBF03213021194305F85C
:1018D0000E1032780BF1010B9345C9DBD9E90023D7
:1018E000134340F0E38005B0BDE8F08F98427DD00F
:1018F000BCF1000F0CBFF0230F2303EA01030CBF60
:1019000004214021194305F80E103278E2E798428D
:1019100040F09180BCF1000F0CBFF0230F2303EACD
:10192000010332780CBF03213021194305F80E1052
:10193000AAB1D7F800E09EF80030A34200F08A80F8
:101940000EF10801002304E01EF83300A04200F06D
:101950008280013393428C4601F10801F4D15D4944
:10196000882006F059F93278B4E7984213BF002373
:10197000202302221A46BCF1000F12BF0F20F020D4
:10198000134601400B4305F80E303278A2E7984227
:101990002CD1BCF1000F0CBFF0230F2303EA01038D
:1019A0000CBF0121102119430020019005F80E10F1
:1019B00005F01EFEA4F1200308FA03F30193019839
:1019C000C4F1200128FA01F1084308FA04F101905A
:1019D0000091D9E90023DDE90001104319430246D3
:1019E0000B460020C9E9002305F01CFE327871E7A0
:1019F000BCF1000F0CBFF0230F233078194005F81D
:101A00000E1098B1D7F800E09EF80030A3422CD019
:101A10000EF10802002303E01EF83310A14225D086
:101A200001338342944602F10802F5D12949882006
:101A300006F0F2F820E0BCF1000F0CBFF0230F23FA
:101A400003EA01030CBF01211021194305F80E1010
:101A500032783FE7F446DCF80430002B3FF43AAF2D
:101A6000204601219847327834E7F446DCF8043008
:101A700013B10021204698470020039005F0B8FDDF
:101A8000A4F12002C4F1200328FA03F308FA02F2B9
:101A90001A4308FA04F103920291D9E90023DDE91F
:101AA000020122EA000023EA010198E70A4B0B48F1
:101AB00019680022490805B0BDE8F04F01F0C8BE22
:101AC000DFF81C900AE700BF180800206808002013
:101AD00048080020C43F01001C0800202008002006
:101AE00040080020092A01D807207047F0B583B0CC
:101AF0000E460546144607F077FC18B907F024FC9B
:101B0000002831D11C4A1D4B1D4F156000211D4876
:101B10001C6020223E7011F01DFA1B4B002000219A
:101B2000741EC3E90001E4B206B3184F032601E0B6
:101B3000FF2C1BD022B29DF8063015F832008DF82C
:101B4000046005EBC20203F0FC0392788DF80520D7
:101B50006FF382033A4601A98DF8063007F04EFC78
:101B6000013CE4B20028E3D003B0F0BD084A0948C4
:101B7000002101F04BFEF7E7680800201C08002058
:101B8000180800204808002040080020C517000061
:101B9000511800002840010070B50C4E33687BB12D
:101BA0000B4D2B7853B100243368012113F8340016
:101BB00007F032FD2B780134A342F5D8002070BD28
:101BC000044940F2351006F027F8E9E768080020DC
:101BD00018080020C43F010030B482B001248DF801
:101BE0000740154B9DF80750186044F20104A042CD
:101BF00059609A6014D044F20201884208D072B64B
:101C00009DF80730002BFBD162B602B030BC7047A4
:101C1000DA60DA6812889A61DA685268DA61EEE7A7
:101C20001A611A6992685A611A6912689A611A6986
:101C30005268DA61E3E700BF6C08002000B583B0AA
:101C400002900091019244F2010071466A4600F050
:101C500003F803B000BD00BF2DE9F041044684B095
:101C60000F46154672B6FFF7F5FAFEF755FD002848
:101C7000FBD144F201039C4227D044F202039C4270
:101C8000204816D0204B2149C01AC008000440F05B
:101C900001003A46FEF788FF1D4B1B68DB0700D5A5
:101CA00000BE2A463946204604B0BDE8F041FFF7A1
:101CB00093BF154E2B886A681649801BC008000424
:101CC00040F00100FFF704F8E6E7D5F808800E4B76
:101CD0000C4E4046F61AF60807F032F82B680193CE
:101CE000029736046B68009346F0010603464246AD
:101CF00030460949FFF7C8F930460849FEF7C8FEE3
:101D0000CAE700BFE4600100AC6001009040010040
:101D1000F0ED00E038400100544001007C4001003B
:101D20002DE9F041164C94F858402F2C84B0804691
:101D30000F4616461D4605D81F2C214607D84FF0E2
:101D4000A04307E00F4940F2CD1005F065FF0E4BB0
:101D500004F01F0101228A40C3F80C2569460022C5
:101D60000A48CDF8008001970296039508F080FE9E
:101D700018B1074AF021FFF761FF04B0BDE8F08118
:101D80008C080020683F010000030050AC400100B7
:101D9000B84001002DE9F0474FFA80F8B8F1000F84
:101DA00084B0434B68DB012483F823404FF00509DE
:101DB0000425032602274FF0000E9E4400F07F0CFE
:101DC0001C441F441E441D448EF828C04FEA116A6B
:101DD0004FEA114C4FEA112E402884F828A087F8CA
:101DE00028C086F828E085F8281043D048280CBF82
:101DF0008721FF219944022A89F8281001D0032A5B
:101E000033D1052283F82420132493F85850B8F1D5
:101E1000000FB8BF0F242F2D2A4604D81F2D07D836
:101E20004FF0A04107E0234940F2CD1005F0F4FE49
:101E3000214905F01F02214D039401239340C1F86D
:101E40000C3505F1100406231D4800950022694653
:101E50000294019308F00CFE18B11A4AF021FFF722
:101E6000EDFE002004B0BDE8F087012283F82420B5
:101E70000F24CAE79521BDE7002402277726FF2516
:101E800083F8237083F8286083F82D5083F8294065
:101E900083F82A4083F82B4083F82C404FF00B093D
:101EA0000A250926082707244FF0060E85E700BFFC
:101EB0008C080020683F010000030050B408002097
:101EC000AC400100B84001002DE9F043B64EF78B5D
:101ED00040F2D91E774587B000F09780B7F5ED7FC7
:101EE0000546994650D20C46002F00F0C28040F2C1
:101EF000C7118F4258D196F82310032940F08580EE
:101F0000318C013189B244F620608142318476D827
:101F10004FF0040E44F6206C7CB12978FF2918BFDD
:101F2000284647D1013503E015F8011BFF2941D1AF
:101F3000611E11F0FF042846F6D196F858402F2C68
:101F4000234600F2F0801F2B00F2F2804FF0A041F8
:101F50000122964C039202FA03F3C1F80C3504F106
:101F60001005102392480294002202A904950593BB
:101F700008F07EFD18B18F4AF021FFF75FFE40F2B6
:101F8000C713F38301200CE0B7F5F07F00F08180E8
:101F9000B7F5F67F08D1002286F8232002201A70B8
:101FA000F28307B0BDE8F08300230320F38307B07A
:101FB000BDE8F083FE2940F0E680611ECCB2944279
:101FC000274628BF174686F823E0451C002F63D01C
:101FD0000021F36810F8018F03F8018001318F426E
:101FE000F7D1F16896F82300378339440328F1606C
:101FF0000CD1318C013189B2614531848CD90220F8
:10200000002289F80000F283CBE7378BBA4240F216
:102010009380D41B96F85850F768A4B2F02C28BFD0
:10202000F0242F2D2B4600F2B5801F2D00F2B78033
:102030004FF0A042012505FA03F3C2F80C355C48C5
:102040005A4B0497002202A905940395029308F0C5
:102050000FFD18B1574AF021FFF7F0FD328BF368FE
:102060002344144440F2D912F3603483F2830120F4
:1020700097E7F2B1B18A89B1F18221B3FF2100273C
:10208000032086F828100121378386F82300318445
:102090003EE7F18A0024F0E73783B7E7454940F28D
:1020A00091108DE8040205F0B7FDB18A9DE80402A5
:1020B000E2E740494FF4C8708DE8040205F0ACFD3A
:1020C0009DE80402D6E796F85840FF232F2C2246BD
:1020D00086F828301ED81F2C21D84FF0A0410123AC
:1020E000324C03939340C1F80C3504F110050223E0
:1020F0002F480294002202A90495059308F0B8FC29
:1021000018B12C4AF021FFF799FD4FF4F673F383D1
:10211000012046E7284940F2CD1005F07DFD04F08E
:102120001F022649DBE7244940F2CD1005F074FD7B
:1021300004F01F0321490BE7F38A96F85840013B4E
:102140002F2CF38222463BD81F2C3ED84FF0A041C3
:102150000123164C03939340C1F80C3504F110058C
:10216000022313480294002202A90495059308F063
:102170007FFC18B10F4AF021FFF760FD4FF4F073B8
:10218000F38301200DE70521002289F800100220C9
:10219000F28306E7084940F2CD1005F03DFD05F059
:1021A0001F03064A46E700BF8C080020B408002041
:1021B000AC400100B8400100683F0100000300503E
:1021C000044940F2CD1005F027FD04F01F0202493A
:1021D000BEE700BF683F0100000300502DE9F04159
:1021E000BC4CC568E38A077C86B006468BB194F880
:1021F00023104B1E012B21D994F82230013B042BD4
:1022000000F20381DFE813F06A007C000101D000D6
:10221000430094F85880B8F12F0F424600F2FE8038
:102220001F2A00F200814FF0A04101239340C1F822
:10223000083594F823104B1E012BDDD8062F40F2F1
:10224000F68073681878BB1F4C28DBB205F10602D4
:1022500000F0F380002B00F027811178FF2940F077
:10226000E8830132013B13F0FF03154600F01A81A9
:102270001178FF2902F10102F4D01F4694F82330AF
:10228000022B00F05981002184F82310B4E7A38BBE
:10229000B3F5397F00F0E58140F2D98040F20A328F
:1022A000934200F0358340F2B381B3F5487F00F0EC
:1022B0001F83B3F54C7F40F0D7804FB12B7853B9D3
:1022C000EB19013502E015F8012B22B99D42FAD134
:1022D000032900F08C860023A383C8E00222002398
:1022E00084F82220A383002900F0BD837A4A40F2BB
:1022F0000F211120FFF7A2FC4FF40473A3838AE09F
:10230000A38B2A78B3F50E7F00F08F8240F2EC8029
:1023100040F26120834200F0638200F2558140F276
:102320004D20834200F0348240F25320834240F03B
:10233000778212F0FC0F00F0D6830023A3830427DA
:1023400002AE94F858508DF80970002103232F2D08
:102350002A468DF8081084F8223000F206821F2ADF
:1023600000F208824FF0A04101239340C1F80835E4
:102370007FB194F82230002B00F0008294F82230D4
:10238000032B00F058831120534A40F2B731FFF776
:1023900055FC524B4FF00042C3F8242530462368C9
:1023A000984706B0BDE8F081A38B40F29A22934291
:1023B00000F0F78040F2A2218B4200F0FD81002B5B
:1023C00000F0DE810023A383062394F858508DF893
:1023D00009300120002303212F2D2A468DF8080003
:1023E00084F82210A382E38284F8233051D81F2A74
:1023F00054D84FF0A0410123934002A82268C1F8AD
:102400000835904706B0BDE8F081334A4FF4767145
:102410000320FFF713FC06B0BDE8F081304940F21D
:10242000CD1005F0F9FB08F01F022E49FDE62A4900
:1024300040F2573005F0F0FB03E7002B40F0E0805E
:10244000551E18BF01277FF419AF01232CE040F27D
:10245000C322934200F07B8240F2D322934200F0E9
:102460000081002B00F02A820023A383062394F826
:1024700058508DF809300220002303212F2D2A46C1
:102480008DF8080084F8221084F82330A382E382B8
:10249000ADD9134940F2CD1005F0BEFB05F01F0287
:1024A0001049A8E74C28CBD094F82220012A00F04C
:1024B0001E8194F822300122013B8DF80920042B63
:1024C00000F24C81DFE813F0330133014A012F01A0
:1024D000160100BF8C080020B84001000030004009
:1024E000683F01000003005040F21320834200F0D7
:1024F0006681B3F5057FC0F0A08040F219208342C9
:1025000000F0BA8140F22620834240F089815307CF
:1025100040F13E81A37A012262F30203A372238C6D
:1025200001339BB2B3F5FA6F238440F28283002318
:10253000A383022702AE04E7012384F823302B781B
:1025400013F0FE0F7FF49FAE94F8585094F82430A7
:102550002F2D03F10E04E4B22A4600F2BB821F2D98
:1025600000F2BD824FF0A041BC4D05940123934081
:10257000C1F80C3505F10A040623B948029500227A
:1025800002A90494039308F073FA00283FF443AFC0
:10259000B44AF021FFF752FB3DE77B1EDFB2013565
:1025A000E261394628460DF107034FF40072FFF748
:1025B0008BFC01287FF62FAF9DF80730002B00F031
:1025C00084800022A28300E740F26B218B4200F05E
:1025D0001C8140F27122934240F0228102AE3946C2
:1025E000284633461022FFF76FFC01287FF613AF11
:1025F0009DF80870002F00F0D2810023A383A0E68D
:10260000FB1F13F0FF0305F107027FF426AE17E767
:10261000B3F53B7F7FF428AF94F83A3003F01F0303
:10262000052B00F04A830B2B00F066820D2B00F087
:1026300063820023A383042319E7002B3FF453AEE6
:10264000B3F5047F40F0EC80002900F0BB81854A9F
:1026500040F212211120FFF7F1FA40F21323A38375
:10266000D9E6238BB3F5007F80F0FA82C3F50075BD
:1026700094F85870E268ADB2F02D28BFF0252F2FE6
:1026800002EB03063B4600F244821F2F00F2468213
:102690004FF0A042012707FA03F3C2F80C35704847
:1026A000714B0296002202A903950597049308F046
:1026B000DFF918B16B4AF021FFF7C0FA228B4FF413
:1026C000397315442583A383A5E6A38A012B73D907
:1026D00094F82330002B00F0AE83624A40F2A1212F
:1026E0001120FFF7ABFA40F2A223A38393E61F4623
:1026F0000025C3E502238DF8083094F858502F2D9B
:102700002A4600F243811F2D00F245814FF0A0417F
:10271000012393400322C1F8083502A8236884F8F6
:102720002220984777E601238DF80830E5E7032358
:1027300084F8223094F8223000228DF80820002BF3
:1027400000F0388394F82230032B00F01B84112012
:10275000444A40F28331FFF771FACEE7414A4FF421
:1027600063710320FFF76AFAC7E7404940F2CD10D2
:1027700005F052FA05F01F023D49F5E5082003E691
:10278000297811F0FC0F3FF408AFA38304231CE663
:1027900012F0FC0F7FF4D1ADD60700F18A83002937
:1027A00000F0088411202F4A40F25221FFF746FA28
:1027B00040F25323A3832EE60023A38305E612F001
:1027C000FC0F7FF4BAAD002900F0BB82254A4FF41C
:1027D00006711120FFF732FA40F21923A3831AE69B
:1027E00012F0FC0F7FF4A9AD224BE3600123A3821A
:1027F000002900F0EA821B4A40F26A211120FFF70B
:102800001DFA40F26B23A38305E612F0FC0F7FF460
:1028100094AD7B1E40F27122DFB20135E261DDE64C
:102820000023A383062702AE8BE512F0FC0F7FF492
:1028300084ADD7073FF573AEA37A03F00703032BEC
:10284000D2D0002900F064831120064A4FF4187199
:10285000FFF7F4F940F26123A383DCE5BA08002016
:10286000AC400100B8400100C4080020683F0100EE
:1028700000030050D4080020500708D4A37A032096
:1028800060F3020312F0FC0FA3727FF456ADA37A3B
:1028900003F00703032B4FF0000314BF1A46402236
:1028A0002384002900F04781C14A40F225211120EC
:1028B000FFF7C4F940F22623A383ACE52B7813F08D
:1028C000FC0F7FF4B6AEA37A03F00703012B43D0CD
:1028D000A38A012B41D9002900F04B831120B44A6F
:1028E00040F2C221FFF7AAF940F2C323A38392E585
:1028F0000322012384F823202384AE4A1023A2F16B
:1029000010000121FFF70CFA4FF44C73A38382E50A
:102910006FB12B78002B40F00581EB19013504E0F5
:1029200015F8012B002A40F0FD809D42F8D10329C3
:1029300040F0FB80238C01339BB244F6206293422B
:10294000238440F2BF810023A38302238FE52B78E9
:1029500013F0FC0F7FF46DAEA38AE3821A46002BBE
:1029600040F0BC81012A7FF6B6AC924A0323FF26D1
:10297000A2F11000FD25022184F8286084F8295076
:10298000FFF7CEF94FF44873A38344E58A4940F238
:10299000CD1005F041F905F01F028849B8E694F81A
:1029A00048309B09012B00F02E81C0F00D81022BD5
:1029B00000F00A813B464FF40071002263602181E0
:1029C000A283BEE494F8585084F8291001234020D3
:1029D00095222F2D84F82A1084F82B1084F82C10BF
:1029E00084F82330294684F8243084F8280084F8B9
:1029F0002D2000F285801F2D00F287804FF0A0452A
:102A00006F4B029301228A40C5F80C25103306262D
:102A10000F256C480493002202A90396059508F03F
:102A200027F800283FF419AE614AF021FFF706F9B4
:102A300013E6154621E4634807F0A0FE94F85850C9
:102A40002F2D2B4600F203811F2D00F205814FF040
:102A5000A04103F5E073002241F8232084F82320ED
:102A600084F8222095E494F8585084F82910012322
:102A7000402095222F2D84F82A1084F82B1084F8FA
:102A80002C1084F82330294684F8243084F8280058
:102A900084F82D2000F2C4801F2D00F2C6804FF074
:102AA000A045474B029301228A40C5F80C251033FC
:102AB00006260F2543480493002202A90396059594
:102AC00007F0D6FF00283FF417AC394AF021FFF792
:102AD000B5F811E4384940F2CD1005F09DF805F045
:102AE0001F02364940E56B785D067FF5A5AEA37AF7
:102AF00043F00803A3729FE60023A3830523B6E4F3
:102B00002D4940F2CD1005F087F805F01F012B4D3F
:102B100076E7294940F2CD1005F07EF807F01F0353
:102B2000264AB7E5002384F82330E38AA28A013BD2
:102B30009BB2E38213E794F8585084F82C100223D8
:102B40004FF0770EFF2769264FF07F4084F823303F
:102B50002F2D4FF0050384F82F202946C4F828E0D4
:102B600084F82D7084F82E60206384F8243000F2FD
:102B700023811F2D00F225814FF0A045104B0293B9
:102B800001228A40C5F80C25103306260F250D4872
:102B90000493002202A90396059507F069FF002817
:102BA0003FF488AE024AF021FFF748F882E600BF02
:102BB000B8400100C4080020683F01000003005035
:102BC000B4080020AC40010094F84F3094F8512034
:102BD00094F850E094F84E0094F84D1094F8525048
:102BE0009B00520003EB9E13800202F0060201F0EC
:102BF0000F01013300F4406002EBD51207390344A2
:102C00000A449340D7E694F8513094F8501094F861
:102C10004F20013303EB012303EB02439B02CAE67F
:102C2000C54940F2CD1004F0F7FF05F01F01C34D78
:102C300037E7002900F095811120C14A40F2372181
:102C4000FEF7FCFF4FF40E73A383FFF7E4BBBA4912
:102C500040F2CD1004F0E0FF05F01F03B749F8E69D
:102C6000E36894F8585003F5007303212F2DE360B7
:102C70002A4684F8231000F213811F2D00F21581DB
:102C80004FF0A0410123AF4D03939340C1F80C35A1
:102C900005F110060323AC480295002202A9049610
:102CA000059307F0E5FE18B1A54AF021FEF7C6FF2F
:102CB0004FF43B73A383FFF7AEBB032940F094812D
:102CC00001232384A14A1023A2F110000121FFF760
:102CD00027F840F20A33A383FFF79DBB94F85850BE
:102CE000022A34BFFE21FC2100200422FF232F2DC5
:102CF00084F829102083294684F8232084F828307A
:102D000000F2FD801F2D00F2FF804FF0A0458D4B9B
:102D1000029301228A40C5F80C25103302258A4807
:102D20000493002202A90395059507F0A1FE18B1AE
:102D3000834AF021FEF782FF40F2D323A383FFF7FB
:102D40006ABB94F8585084F8291001234827AA2612
:102D5000872005222F2D84F82A1084F82330294655
:102D600084F82B3084F8287084F82C6084F82D00C7
:102D700084F8242000F2BA801F2D00F2BC804FF0AE
:102D8000A045704B029301228A40C5F80C251033F0
:102D9000062613256C480493002202A90396059584
:102DA00007F066FE00283FF417AD654AF021FEF7F4
:102DB00045FF11E50820CBE45F4940F2CD1004F057
:102DC0002BFF05F01F015D4DD8E694F8585084F8AC
:102DD00029104920FF222F2D84F82A1084F82B1067
:102DE00084F82C1084F8233084F82430294684F8A1
:102DF000280084F82D2000F2AB801F2D00F2AD805A
:102E00004FF0A0454F4B029301228A40C5F80C2594
:102E1000103306260F254C480493002202A903967E
:102E2000059507F025FE00283FF4EBAC444AF0215D
:102E3000FEF704FFE5E494F8585084F829300122A5
:102E40004C26FF202F2D84F82A3084F82B3084F86C
:102E50002C30294684F8232084F8242084F8286024
:102E600084F82D005ED81F2D61D84FF0A045354B5A
:102E7000029301228A40C5F80C25103306260F253F
:102E800031480493002202A90396059507F0F0FD4E
:102E900000283FF428AC2A4AF021FEF7CFFE22E4B6
:102EA000254940F2CD1004F0B7FE05F01F0223497A
:102EB000E8E6238C01339BB2B3F5FA6F23843FF627
:102EC00036ABA37A03F00703032B14BF00234FF0A4
:102ED0008043002977D01120194A4FF41371FEF76F
:102EE000ADFE40F24D23A383FFF795BA124940F29D
:102EF000CD1004F091FE05F01F01104D41E70E4981
:102F000040F2CD1004F088FE05F01F010B4DFEE6E7
:102F100001224FF400715020FEF73CFF00283FF4DF
:102F200099AC92E4044940F2CD1004F075FE05F02E
:102F30001F01024D9BE700BF683F010000030050E6
:102F4000B8400100B4080020AC400100C4080020D3
:102F50002C4940F2CD1004F05FFE05F01F012A4D10
:102F600050E702224120FEF715FF00283FF46AAE29
:102F700063E6012221695920FEF70CFF00283FF487
:102F8000B3ACACE4214807F0F9FB94F858502F2D6E
:102F90002B4623D81F2D1ED91B4905F01F0303F50F
:102FA000E073002241F8232084F8232084F82220B3
:102FB000FFF7A3BB02227A20FEF7ECFE00283FF4C5
:102FC000F7ABFFF7F0BB19460222E920FEF7E2FE5D
:102FD000002886D080E74FF0A041E0E7094940F2A1
:102FE000CD1004F019FED7E7002323849DE5238C40
:102FF00001339BB244F62062934223843FF6A3AC94
:103000007BE400BF683F010000030050AC400100BA
:1030100070B50D4682B0044668B11E4B93F822107D
:1030200011B9082002B070BD93F8221003290AD00C
:10303000112002B070BD1849019240F2E23004F054
:10304000EBFD019AE9E70AB90720EBE7997ADC6022
:10305000090793F823109A824FF0040058BF6D02BD
:103060000026012A83F822001D61DA828CBF5220DB
:1030700051209E8339B11120074A40F20241FEF7E8
:10308000DDFD0020CEE729460122FEF783FE002861
:10309000C8D0F1E78C080020B8400100F0B50D461B
:1030A00087B0044668B14B4B93F8221011B9082041
:1030B00007B0F0BD93F8221003290AD0112007B001
:1030C000F0BD4549019240F20A4004F0A5FD019A85
:1030D000E9E70AB90720EBE7997ADC60052083F875
:1030E0002200080758BF6D020020012A1D619A8244
:1030F000DA8298830ED001F00701012916D093F8E7
:103100002310F9B11120344A40F23C41FEF796FDFC
:103110000020CDE793F82330002B53D011202E4A06
:1031200040F22D41FEF78AFD0020C1E793F82330DD
:10313000002BE7D10A4659202946FEF72BFE00282E
:10314000F2D0E0E793F85840244D83F8301002277E
:10315000110A7726FF2083F832202F2C4FF001022E
:1031600083F8311083F8237021469E62DD6283F874
:10317000330083F824201CD81F2C1FD84FF0A04404
:10318000174B029301228A40C4F80C251033062500
:103190000F2414480493002202A90395059407F014
:1031A00067FC0028C0D00C4AF021FEF747FD002044
:1031B0007EE70D4940F2CD1004F02EFD04F01F0112
:1031C0000A4CDDE729465820FEF7E4FD0028ABD085
:1031D000A5E700BF8C080020B840010000FF5700A1
:1031E000B4080020AC400100683F0100000300501B
:1031F0002DE9F041574C94F8223088B01BB10820DB
:1032000008B0BDE8F081002970D0C778FF2F6DD0DD
:103210004378FF2B6AD00278FF2A67D090F802E04B
:10322000BEF1FF0F62D00E46054627B11BB112B1A9
:10323000BEF1000F05D1484940F2524004F0ECFCC9
:10324000EF7884F858702F2F3A4660D81F2F7CD81B
:103250004FF0A04107F5E073032041F8230001235C
:1032600003FA02F2C1F80825AB7895F800E06F7810
:103270008DF800300021FF250B468DF801E08DF818
:1032800002704FF0060E8DF80C108DF80D104FF0F7
:103290008047324A32488DF8035069468DF8055010
:1032A0008DF804E0029705F0ADFE50BBA37A2D49DE
:1032B000266003F0F80300256FF3C30301F1100E3D
:1032C0000126A372FF2704910A232748CDF818E0AE
:1032D0002A4604A984F8235084F82260059684F8CD
:1032E0002870079307F0C4FB20B989E7072008B0CE
:1032F000BDE8F081184A40F27141FEF79FFC284674
:103300007EE7154A40F26541FEF798FCCEE7174983
:1033100040F2CD1004F080FC94F85880424607F04B
:103320001F0303F5E073124903202F2A41F82300FD
:1033300005D81F2A0BD908F01F020D498FE70B494A
:1033400040F2CD1004F068FCF5E7B846E7E74FF02F
:10335000A04184E78C080020B8400100DD21000076
:10336000A8400100B4080020AC400100683F010003
:103370000003005038B5154C94F822300BB90820E2
:1033800038BD94F82230032B01D0112038BD1048ED
:1033900007F0F4F994F858502F2D2B460DD81F2D17
:1033A00010D84FF0A04203F5E073002042F823004C
:1033B00084F8230084F8220038BD064940F2CD107D
:1033C00004F02AFC05F01F03034AECE78C080020F8
:1033D000AC400100683F010000030050064B93F829
:1033E0002220032A05D093F82200003018BF0120C4
:1033F00070470020704700BF8C080020044890F8F8
:103400002230022B00F1040098BF0020704700BF5B
:103410008C080020D0E90223D1E90201994208BFBB
:1034200090422CBF01200020704700BF2DE9F04FD3
:1034300087B0039004F0CCFA40B19549D1E900235C
:1034400012F1807443F10005C1E9004500210398A1
:10345000904C04F0EBFA002840F02C8101210398F5
:1034600004F0E4FA002840F0F88005A98A4804F046
:1034700037FC00B3894DDFF83082874F0378012B8A
:1034800000F08180C0F08780022B0AD1002600E086
:103490000677284605F00AFC0028F9D1012388F8B0
:1034A000003005A9384604F04BFC05A9384604F065
:1034B00017FC0028E2D1794E794FDFF8D49107E06C
:1034C0000D2877D07749F52004F0A6FB0023236070
:1034D000304605F0FBFB2368002800F0B88063B19C
:1034E0002368D0E90201D3E90223994208BF904240
:1034F0003BD223681B7F002B40D1304605F0D6FB22
:103500000546D5E902233846CDE9002304F0A8FAA0
:10351000D9E90023DFF8948112EB000A43F1000B94
:10352000D8E900239B4508BF924503D21AF1807A5F
:103530004BF1000BDDE90001B0EB0A0061EB0B0180
:10354000012871F1000331DBDFF864B158450FD871
:10355000AA684FF496030021384604F08BF900283E
:10356000AED12368002B6ED0256007B0BDE8F08F88
:10357000384604F075FA00EB0B02EAE721683046A2
:1035800005F072FBB9E741682368994258D0284694
:1035900005F0ACFB85E743681A7F002A81D1012240
:1035A0001A774168284605F05FFB7AE70021384624
:1035B00004F028FA6B69002B00F0D1803A4B1B789D
:1035C000002B83D02B7F002B80D0384604F048FAA4
:1035D000D8E90023D9E900ABCDE900231AEB0002BA
:1035E0004BF1000310461946DDE90023994208BF5C
:1035F000904203D210F1807041F10001D5E902231D
:10360000994208BF9042C0F0AF802B6903B92B7775
:103610006B69A8699847296900293FF457AF2B7F48
:10362000002B3FF453AFD5E9022312EB010A43F11B
:10363000000BC5E902AB2946304605F015FB45E70E
:10364000002323602DE7039804F0BCF88CE7002BDF
:103650008BD1039804F0C8F887E71148DFF84C8055
:1036600004F0FEF90A4BD3E90067D8E9002316EB12
:10367000000947F1000A9A4508BF9145484651465E
:1036800003D219F180704AF10001C8E90001ECE6AB
:10369000F00800207009002054090020204101009A
:1036A0001C0000202C410100F808002068090020BF
:1036B000FFFFB4002368002B3FF4D0AE039804F062
:1036C000CFF923689B68C31A23F07F43B3F5960FA5
:1036D0003FD225686B69002B50D02B4B1B78002BF9
:1036E00034D02B7F002B31D0284804F0B9F9284A78
:1036F000284BD2E90067D3E9002316EB000847F115
:103700000009994508BF90454046494603D218F143
:10371000807049F10001D5E90223994208BF904227
:1037200027D32B6903B92B776B69A8699847296957
:1037300061B12B7F53B1D5E90223561843F100073D
:10374000C5E902672946144805F08EFA0023236074
:1037500084E6124940F22B1004F05EFAB9E70F49F3
:10376000A22004F059FA29E72946304605F07CFAF0
:10377000ACE62946084805F077FAE7E70749A220B2
:1037800004F04AFAA9E700BFF80800201C00002056
:10379000F008002068090020204101002C410100B0
:1037A00010B5134B13491B68134882B0582201937C
:1037B000082304F03FFA044610B1204602B010BDC1
:1037C0000E4A0F4801A903F065FF04460028F4D112
:1037D00001210B4804F0E8F801231946094A08487A
:1037E00004F014F8084B012220461A7002B010BDF4
:1037F0001C410100FC080020540900202D34000069
:103800001C000020FFFF7F00F808002030B50C46A8
:1038100083B0054658B192B1A4F101042B68B4FA03
:1038200084F464095A611C61002003B030BD07496B
:10383000019240F22E2004F0EFF9019AEBE740F2FA
:103840002F20024904F0E8F90720EEE72C4101009F
:103850002DE9F0480D4684B00446002842D0237F6D
:103860001BB1002004B0BDE8F088A261214804F03B
:10387000F7F8214B2149D3E90023D1E9006712EB86
:10388000000B43F1000CBC4508BFB34558466146E8
:1038900003D21BF180704CF100014019236941F102
:1038A0000001C4E9020193B903A9154804F0DAF94B
:1038B000A0B100254460057003A9114804F000FA86
:1038C0000028CFD00B4804F0CFF82846CAE725617E
:1038D00003A90B4804F0C6F90028EAD1042004B07B
:1038E000BDE8F0880749019240F23E2004F094F9C7
:1038F000019AB4E71C000020F008002068090020AD
:10390000540900202C41010030B5044683B0C8B1F1
:103910000025257701A90E4804F0A4F978B1012308
:103920004460037001A90A4804F0CAF908B903B059
:1039300030BD084804F098F8284603B030BD042094
:1039400003B030BD04494FF4157004F065F9DFE7AA
:10395000540900201C0000202C41010030B583B028
:1039600020B1154940F27B2004F056F901A9134813
:1039700004F078F90446E8B1114D28682060002071
:1039800003F036FE0F4B10481B88026801339B1A68
:10399000E380002104F0E4F9A080002003F042FE5F
:1039A00001A9064804F08CF9084B1B6813B10146C5
:1039B0002846984703B030BDA4410100200B0020E9
:1039C00018420100140A0020440B0020780900204E
:1039D00070B50378052B82B0054639D0002B44D151
:1039E000354B1C689CB1354E04E0688898472368C5
:1039F0005C6864B1236823B39B68002BF5D1314622
:103A000040F21B1004F008F923689B68EDE72C4C8A
:103A1000002003F0EDFD23687BB10121284804F06C
:103A2000B9F9002003F0FEFD264B1B6813B12846B0
:103A300001219847236802B070BD234B6A881A8021
:103A4000EBE731464FF48D7004F0E6F82368D3E7D6
:103A50001E4BD3F88424D3F8803413F0FF0F04D125
:103A60001B4BD2B2052A08BF1D4601A9194804F014
:103A7000F9F804460028DED02B680360002003F02C
:103A8000B7FD114B0E481B88026801339B1AE38077
:103A9000002104F065F9A080002003F0C3FD01A916
:103AA0000C4804F00DF9074B1B68002BC3D00146EE
:103AB0002846984702B070BD3C0B0020A44101008D
:103AC000440B002078090020140A002000700240F6
:103AD00014420100200B002030B5012883B02FD004
:103AE00037D3022825D101A91E4804F0BBF80446AB
:103AF00020B31D4D28682060002003F079FD1B4B8A
:103B00001B481B88026801339B1AE380002104F0E4
:103B100027F9A080002003F085FD01A9114804F0D9
:103B2000CFF8144B1B684BB101462846984703B0A9
:103B300030BD114940F2622004F06EF803B030BD90
:103B400001A9084804F08EF804460028F6D00B4D71
:103B5000D0E701A9034804F085F804460028EDD019
:103B6000074DC7E7200B002010420100140A002077
:103B7000440B002078090020A44101000C42010000
:103B8000084201002DE9F04F87B006AE002504463B
:103B9000894692469B4646F8105DA84601E008F12A
:103BA0000108626801235568214600223046A84773
:103BB0000028F4D18DF806000490B8F1000F28D049
:103BC0000546064662680123576821460DF1060244
:103BD00004A8B84762680123576821460DF107021F
:103BE00004A8B8479DF807304B454FF00002214626
:103BF00004A803D1AA4510D00135EDB29DF80630D6
:103C00006768023B7F68B8479DF806301E44B045A0
:103C1000D8D8052007B0BDE8F08F109A9DF806307F
:103C200013608BF800308BF801906168023B4D689F
:103C30000BF102022146A847002007B0BDE8F08F33
:103C4000014B1888704700BF300B00202DE9F04F62
:103C500085B0054605F0CAF860B108234FF48472B8
:103C60005449554803F0E6FF50B10324204605B0FF
:103C7000BDE8F08F514940F2313003F0CDFFECE761
:103C80004F4809F047F804460028EFD14D4A4E4B03
:103C90004E4E1470214648224D4834601C600FF08F
:103CA00059F9214648224B480FF054F9002D6ED0A7
:103CB00095E80700484B83E80700002005F060F90D
:103CC00000285CD1454DDFF80CB12B7AD5F804A063
:103CD0003A4F019305F1090400261A46F3B29342C4
:103CE0003AD2002C38D0617891B3A378E31818BF8A
:103CF0004FF0010913D12BE0B8F1080F21D80BEBDD
:103D0000C8031D60DAF800005860894509F1010315
:103D1000D8B21DD2A3784B44E31819D08146187845
:103D2000030600F00F08E7D5B8F1080F05D93946AA
:103D30004FF4CC7003F070FF6178254B03EBC803A0
:103D4000DFE739464FF4CF7003F066FF6178D6E7BE
:103D500001360334019AC1E70B238DF80C30BAF118
:103D6000000F21D0DAF80030B3B11C4803A99847FE
:103D7000044600283FF47AAF09F070F876E785280A
:103D8000A0D00E4A40F25F31FDF758FF9AE7124B80
:103D90001D605D601D7290E7084940F2111003F04C
:103DA0003BFFDAF80030E0E704494FF4887003F095
:103DB00033FFD7E7180A0020200B0020A4410100A0
:103DC000D1390000480B0020380B0020340B0020B4
:103DD00084090020CC090020780900203C42010021
:103DE00010B509F077F908B9082010BD09F07AF983
:103DF00004460028F8D1064805F0D8F800B910BDEF
:103E0000044A40F2C231FDF719FF204610BD00BF41
:103E100004420100A441010009F036B808B509F0D8
:103E20006BF920B1044940F2D13003F0F5FEBDE852
:103E300008400AF0B5B900BFA441010030B583B015
:103E400009F050F9002830D04FF0804303E0D3F858
:103E50003824D10727D5D3F838249207F7D501A9FC
:103E6000154803F0FFFE0446E8B1144D28682060B1
:103E7000002003F0BDFB124B12481B88026801337F
:103E80009B1AE380002103F06BFFA080002003F069
:103E9000C9FB01A9084803F013FF0B4B1B6813B1C2
:103EA00001462846984703B030BD08494FF4767064
:103EB00003F0B2FEC8E700BF200B00201C42010047
:103EC000140A0020440B002078090020A4410100BE
:103ED00010B582B0822301A912488DF8003003F09A
:103EE000C1FEE8B1044600982060002003F080FB8A
:103EF0000D4B0E481B88026801339B1AE38000219A
:103F000003F02EFFA080002003F08CFB01A90548E0
:103F100003F0D6FE064B1B6813B10146684698476E
:103F200002B010BD200B0020140A0020440B00201A
:103F3000780900202DE9F04F824685B0002800F076
:103F4000E080DAF80430002B00F0CD801B68002BF5
:103F500000F0D180DAF800301B6823B1784940F2D4
:103F60006D5003F059FE09F0BDF8002841D109F069
:103F7000B1F800283DD09AF80820DFF8D0B1704F92
:103F8000DFF8C08100240AF10903661C9442019302
:103F9000F6B241D224B2019B04EB44041C193CD07C
:103FA000002507E0B9F1080F29D80BEBC90301354B
:103FB0001B68D3B96278EBB29A4226D9A27813442F
:103FC000DC4222D0E25C02F00F091206EAD5B9F118
:103FD000080F04D939464FF4CC7003F01DFE08EBEE
:103FE000C90301351B68002BE4D0112005B0BDE8E2
:103FF000F08F534940F2715003F00EFEBBE7394693
:104000004FF4CF7003F008FECFE79AF8082034464B
:10401000661C9442F6B2BDD300240AF10903DFF80E
:104020002C91474D474E01935FFA84F8904542D258
:10403000019B08EB480813EB08083CD098F80130C6
:10404000BBB398F8023018EB030318BF4FF0010B15
:1040500018D12EE0082F24D809EBC703C3F800A01D
:10406000DAF8042012685A6098F801100BF1010385
:104070005945DAB21BD998F802305B4418EB0303B8
:1040800015D093461A78130602F00F07E2D5082FD1
:1040900004D929464FF4CC7003F0BEFD06EBC703EC
:1040A000DCE729464FF4CF7003F0B6FDD4E79AF869
:1040B00008200134B8E7244C236833B1204D9A45D9
:1040C00025D01C682368002BF9D1C4F800A0DAF8C9
:1040D00004300B228DF80C204BB31B68F3B1504613
:1040E00003A9984782E7164940F26B5003F094FD0C
:1040F000DAF804302AE7124940F26C5003F08CFDE4
:1041000028E70F4940F26A5003F086FD19E7294677
:1041100040F2975003F080FD2368D2E7084940F24F
:10412000111003F079FDDAF804301B68D7E7044971
:104130004FF4887003F070FDDAF80430CDE700BF6B
:10414000A441010084090020340B0020CC09002088
:10415000024B1878003018BF01207047400B002038
:1041600000F00F03072B10B5044604D809F026FA17
:10417000204609F00BFE2046BDE8104009F072BD54
:104180000AF0E2B9014B1868704700BF340B0020F9
:1041900070B4114B1E68A6B1357A75B1737A83423B
:1041A00006F1090210D0002303E012F8034F844205
:1041B0000BD00133DBB29D42F7D133681E68002E6D
:1041C000EAD1304670BC704700230029F9D0304650
:1041D0000B7070BC704700BF340B002070B51546E3
:1041E0000446A0B16368C3B11B6823B129462046C9
:1041F000BDE8704018470C4940F2111003F00CFD67
:104200006368294620461B68BDE870401847064988
:1042100040F20F1003F000FDE4E703494FF488700B
:1042200003F0FAFC6368DFE7A441010000F00F032C
:10423000082B01D910207047020670B54CBF104AF8
:10424000104A02EBC3031D684DB16B680C4683B185
:104250001B6833B121462846BDE87040184710203E
:1042600070BD094940F2111003F0D6FC6B681B6861
:10427000F0E705494FF4887003F0CEFC6B68E7E780
:1042800084090020CC090020A441010070B5144B22
:104290001C681CB30546134E07E029462046984784
:1042A000062813D123681C68C4B163687BB11B68FE
:1042B000002BF2D1314640F2111003F0ADFC6368DF
:1042C00029461B68204698470628EBD070BD31462A
:1042D0004FF4887003F0A0FC6368E8E7062070BD27
:1042E000340B0020A441010038B50D46044608F007
:1042F00083FF08B9082038BD044B1B78022BF9D185
:1043000029462046BDE8384008F098BF480B0020F9
:1043100038B50D46044608F06FFF08B9082038BDCF
:10432000044B1B78022BF9D129462046BDE83840C2
:1043300009F04AB8480B0020F8B543689B6804466A
:104340000E4615461BB19847062800D0F8BD237AC3
:10435000B34202D33DB10720F8BD184940F2F9201D
:1043600003F05AFCF6E7237AB34222D9093406EB6C
:10437000460634446778F7B12B463A4614E0A378F2
:104380006219D65C06F00F03072B05D8304609F0FA
:1043900015F9304609F0FAFC3046013509F062FCA7
:1043A000EBB29F4207D962789A42E8D800231B7883
:1043B000FFDE6B78FFDE0020F8BD00BFA4410100E6
:1043C00043681B6903B11847184670472DE9F84F39
:1043D000334BD3F80080B8F1000F5FD0DFF8C4B0E2
:1043E00098F808A0BAF1000F47D000273C4608F122
:1043F000090511E00022214640469847062810D0C2
:1044000020B1594640F26A7003F006FC0137FCB255
:10441000A24505F1030530D9D8F804309B68002B7C
:10442000E8D198F80830A34230D3A34222D995F8B6
:104430000190B9F1000FE9D0002423464A4614E068
:10444000AB782A19D65C06F00F03072B05D8304647
:1044500009F0B4F8304609F099FC3046013409F00F
:1044600001FCE3B29945D1D96A789A42E8D8002391
:104470001B78FFDE00235B78FFDED8F80030D3F82E
:104480000080B8F1000FABD1BDE8F88F594640F27B
:10449000F92003F0C1FB98F80830C6E7BDE8F88FB3
:1044A000340B0020A44101002DE9F047244B1F6884
:1044B000002F43D0DFF88CA097F80890B9F1000FD7
:1044C0002CD04FF00008444607F109057B68DB68F3
:1044D00013B12146384698473B7AA34227D3A342DB
:1044E00022D96E7896B100242346324609E0AB7893
:1044F0002A190134D05C0AF027F8E3B29E4205D9AC
:104500006A789342F3D300231B78FFDE08F1010899
:104510005FFA88F4A14505F10305D7D83B681F6809
:10452000002FC9D1BDE8F08700235B78FFDE51463C
:104530004FF4467003F070FB3B7AD0E7BDE8F0879C
:10454000340B0020A44101002DE9F0418B4D2B6874
:104550000446002B00F0FE8203F07EF8052840F2AE
:104560008C802378852B00F2EE82DFE813F01202B4
:10457000B701B6023F0290028C009300EC02B80033
:10458000DA00FC00EC02EC02EC02EC023601EC0278
:10459000EC02EC02EC02EC02EC02EC02EC02EC02AB
:1045A000EC02EC02EC02EC02EC02EC02EC02EC029B
:1045B000EC02EC02EC02EC02EC02EC02EC02EC028B
:1045C000EC02EC02EC02EC02EC02EC02EC02EC027B
:1045D000EC02EC02EC02EC02EC02EC02EC02EC026B
:1045E000EC02EC02EC02EC02EC02EC02EC02EC025B
:1045F000EC02EC02EC02EC02EC02EC02EC02EC024B
:10460000EC02EC02EC02EC02EC02EC02EC02EC023A
:10461000EC02EC02EC02EC02EC02EC02EC02EC022A
:10462000EC02EC02EC02EC02EC02EC02EC02EC021A
:10463000EC02EC02EC02EC02EC02EC02EC02EC020A
:10464000EC02EC02EC02EC02EC02EC02EC02EC02FA
:10465000EC02EC02EC02EC02EC02EC02EC02EC02EA
:10466000EC02EC02EC02EC02EC02EC02EC022601A1
:1046700057017A01B001F5018C00414940F22C400C
:1046800003F0CAFA6DE73F4B214693E80500BDE809
:10469000F0411047A5782B0605F00F0600F1AF8218
:1046A000082E00F28783374D05EBC6052B68002BDB
:1046B00000F095836B68002B00F0978328682146F3
:1046C0009847002800F00881A07800F00F03013B14
:1046D000062B00F20181BDE8F04108F01DBF2A4B16
:1046E0005B680BB1082098472D68002D00F0F4801E
:1046F000234E07E02846214698472B681D68002D69
:1047000000F069826B68002B00F044831B68002B6B
:10471000F0D1314640F2111003F07EFA6B681B684D
:10472000E8E7194B5B680BB1092098472D68002D0D
:1047300000F0D280124E07E02846214698472B68A9
:104740001D68002D00F04B826B68002B00F01B836E
:104750001B68002BF0D1314640F2111003F05CFAD7
:104760006B681B68E8E7084B5B680BB10A20984749
:104770002D68002D00F0B080014E0FE0340B0020BA
:10478000A4410100CC0900207809002028462146D8
:1047900098472B681D68002D00F01F826B68002B66
:1047A00000F0B2821B68002BF0D1314640F21110AC
:1047B00003F032FA6B681B68E8E79F4C2378062BFE
:1047C00000F03182072B02D0052B40F0858008F0E5
:1047D000E7FC02232370BDE8F081984B5B680BB1C6
:1047E0000F2098472D68002D76D0954E07E028467B
:1047F000214698472B681D68002D00F0EA816B6800
:10480000002B00F07A821B68002BF0D1314640F279
:10481000111003F001FA6B681B68E8E7894B8A49BD
:1048200093E8050090472C68002C00F09981844E95
:10483000854D07E020462946984723681C68002CD0
:1048400000F08E816368002B00F073821B68002BE0
:10485000F0D1314640F2111003F0DEF963681B68B5
:10486000E8E7754EFFF720FE09F0CCFA3278931E88
:10487000DBB2062B05D87549CB5C13B104F05AFBAB
:104880003278022A00F0C981082A00F0C6812C681B
:1048900000233370002C00F00382694F6C4D07E059
:1048A00020462946984723681C68002C00F0F881B0
:1048B0006368002B00F01A821B68002BF0D1394688
:1048C00040F2111003F0A8F963681B68E8E75A4E3C
:1048D0003378032B00F0AD81BDE8F081564EFFF731
:1048E000E3FD00F0ADFB3278931EDBB2062B00F245
:1048F00078815649CB5C002B00F07381022A03D0EB
:10490000082A01D008F04CFC4C4B5B680222327044
:104910000BB1012098474B4B214693E80500904787
:104920002D68002DD8D0464E07E0284621469847EE
:104930002B681D68002D00F0D0816B68002B00F003
:10494000CE811B68002BF0D1314640F2111003F0EC
:1049500063F96B681B68E8E7374E3378032B00F088
:10496000868108F0D9FB0028B6D03278931EDBB2DE
:10497000062B40F22E82374804F09AFA3278022A47
:1049800000F01E82082A00F01B8206233370BDE867
:10499000F081294B304A1B7861881180032B00F08D
:1049A0006281082B00F05F81244B5B680BB1002013
:1049B00098472A4B1D68002D8ED0214E07E02846CF
:1049C000214698472B685D68002D00F084816B6854
:1049D000002B00F0A7811B68002BF0D1314640F27C
:1049E000111003F019F96B681B68E8E7124E337871
:1049F000082B00F0FF809A1ED2B2062A40F2D48122
:104A0000144804F055FA3378022B00F0CA81082BC1
:104A100000F0C78105233370084B5B680BB103209E
:104A20009847084B214693E8050090472D68002DD4
:104A30003FF452AF024E1BE0480B002078090020E3
:104A4000A4410100CC090020204201009C4101004A
:104A50002442010024000020300B0020380B0020ED
:104A60002846214698472B681D68002D00F03181AB
:104A70006B68002B00F04F811B68002BF0D1314692
:104A800040F2111003F0C8F86B681B68E8E7B04B00
:104A90005B680BB103209847AE4BAF4993E8050024
:104AA00090472C68002C7BD0AC4EAB4D06E02046E6
:104AB0002946984723681C68002C71D06368002B36
:104AC00000F05A811B68002BF1D1314640F21110E1
:104AD00003F0A2F863681B68E9E7A14E3278931EE1
:104AE000DBB2062B05D89F49CB5C13B104F022FA48
:104AF0003278022A00F09480082A00F09180944BCA
:104B00005B68032232700BB1022098472D68002D9C
:104B10003FF4B9AD914E07E02846214698472B68EF
:104B20001D68002D3FF4AFAD6B68002B00F00881CD
:104B30001B68002BF0D1314640F2111003F06CF8E5
:104B40006B681B68E8E7854940F22650BDE8F041F4
:104B500003F062B8814940F2254003F05DF8FBE4C0
:104B60007B4B5B680BB10D2098477D4EFFF79CFC9B
:104B700000F070FA012008F06BFA3278931EDBB275
:104B8000062B05D87749CB5C13B104F0D3F9327802
:104B9000022A3FD0082A3DD001233370BDE8F081BE
:104BA0006F4E3378062B21D0082B0ED09A1ED2B22E
:104BB000062A40F208816C4804F07AF93378022B17
:104BC00003D0082B01D008F0EBFA02233370BDE8C4
:104BD000F081BDE8F081BDE8F081BDE8F081BDE87D
:104BE000F081614804F064F9327887E60723337076
:104BF000BDE8F0810223337008F0DCFA0CE7082EE0
:104C000004D956494FF4CC7003F006F8574D05EB24
:104C1000C6054BE508F0BAFABEE708F0B7FA36E683
:104C200008F0B4FA6BE708F0BBFA08232370BDE87C
:104C3000F08109F0B7FB00283FF44EAE3278931EA6
:104C4000DBB2062B05D84749CB5C13B104F072F9EF
:104C50003278022A00F0D080082A00F0CD800423A8
:104C60003370BDE8F0814248FFF76EFC9CE609F026
:104C700099FB00283FF475AE3278931EDBB2062B09
:104C800005D83849CB5C13B104F054F93278022AC4
:104C900000F0B580082A00F0B2800423337060E68B
:104CA0002C4B344993E805009047294B5B680BB1C6
:104CB0000E2098473378023BDBB2062B3FF60CAE52
:104CC000284AD35C002B3FF407AEBDE8F04104F066
:104CD00031B9BDE8F081BDE8F081BDE8F081314631
:104CE0004FF4887002F098FF6B682AE639464FF45B
:104CF000887002F091FF6368DEE531464FF48870FA
:104D000002F08AFF6B687EE531464FF4887002F04E
:104D100083FF6B6846E531464FF4887002F07CFFF4
:104D20006B68A9E631464FF4887002F075FF6B6836
:104D300051E631464FF4887002F06EFF636885E5F6
:104D400031464FF4887002F067FF6B68F0E600BFF1
:104D500078090020CC0900202C420100A441010068
:104D6000480B00209C410100240000208409002001
:104D7000284201002442010031464FF4887002F0BD
:104D80004BFF63689EE631464FF4887002F044FFA3
:104D90006B68DDE431464FF4887002F03DFF6B68CC
:104DA000B4E408F0F3F935E616498A5C002A7FF48A
:104DB0002BAE25E614494FF4CF7002F02DFF72E4BC
:104DC00008F0E4F9E1E50F498A5C002A7FF4F7AEC8
:104DD000F1E60C49CB5C002B7FF4D1ADCBE50A4961
:104DE00040F2025002F018FF64E4074940F2035019
:104DF00002F012FF6B6861E408F0C8F92FE708F0D1
:104E0000C5F94AE79C410100A441010030B5274D96
:104E100083B028680023019300B38488A4B1C388B9
:104E2000B3F5006F3ABF5A1C92B2012204F1FF346D
:104E300028BF00238480C28001A8ADF80630FFF7A8
:104E400083FB012003B030BDFFF77EFB18491948F2
:104E500002F076FF01202C6003B030BD14491548E4
:104E600002F03EFF044628600028D6D1124B1B6892
:104E70000BB91846E6E702F0BBFB104A0E48138850
:104E8000B3F5006F35BF5C1C2346A4B20124012199
:104E90001480ADF8063002F099FF002002F0C2FB4A
:104EA00001A8FFF751FB0120CCE700BF4C0B00200D
:104EB00074090020200B0020440B0020140A00205D
:104EC000002070472DE9F04F87B04B6803900C46E7
:104ED0000292002B00F09580029B402B7BD808F0BB
:104EE000EDFAE668029B9E4228BF1E468246002ECF
:104EF00000F097804FF000084746C1464FF0010B85
:104F0000CDF80480A3686168B342984628BFB046D4
:104F100001B342460AEB07000EF011F8A268E368FD
:104F2000C4F80490A2EB0802A3EB0803A6EB080662
:104F30004744A260E3607AB1002B2BD0A3689BB1F9
:104F4000002EDFD1039AC2F800A05760584607B080
:104F5000BDE8F08F13BBE368019A002A33D11BB977
:104F60009346002ECED1EDE72168002940D0CDF840
:104F7000109003E0A36821680133A3604B6800220E
:104F80005D6804A80123A8470028F3D12061002E02
:104F9000B8D1D7E79B46002EB4D1D3E7204643468D
:104FA00050F8101B4A6855680AEB0702A847A26828
:104FB000E368A2EB0802A3EB0803A6EB080647444C
:104FC000A260E36022B925685DB12A681268226098
:104FD00001220192B0E7184940F2971002F01CFE3E
:104FE0007DE7164940F2432002F016FEE368ECE745
:104FF0006160002FA6D0029BBB4288BF4FF0000B20
:10500000A0E70D688DB12B681B68002B7FF464AF9F
:10501000A368002B7FF460AF03999B460B604B6045
:1050200094E737464FF0010B8CE7044940F24320E8
:1050300002F0F2FDE7E700BFFC4201009C420100E4
:1050400008B50020FFF78CF88020BDE80840FFF786
:1050500087B800BF08B50020FFF792F88020BDE8B0
:105060000840FFF78DB800BF70B5C38893421D4656
:1050700028BF1546934284B00E461FD80022002058
:1050800003920196029502F0B3FA01A98020FFF77E
:105090002BF9044628B1002002F0C4FA204604B0DF
:1050A00070BD08F013FB802818BF1024F3D1094A03
:1050B000094B92E8030083E80300ECE780201446E4
:1050C00008F07EF8B4FBF0F303FB1042B2FA82F270
:1050D0005209D4E7844201007C0B00202DE9F04FF7
:1050E0000B78062B89B000F0B6801FD90D2B00F08D
:1050F0009B8048D80B2B7AD00C2B4DD1B44C237805
:10510000012B07D0B34940F2524002F085FD2378CD
:10511000002B33D0B049B1480A78002322F00202B4
:105120000A7023701D46FFF70FFA28E0022B25D0E6
:1051300068D9032B46D0052B2ED105460DF115005D
:105140008DF8143008F060FA9DF81520A44C002169
:1051500002F01F032160032B00F2D180DFE813F07F
:10516000F900D300C600B6009E4B1B68082B40F028
:105170005A819D4B1B68002B40F055810025284625
:1051800009B0BDE8F08F0E2B0BD0852B04D1904BCE
:105190001A78032A00F04A810625284609B0BDE89E
:1051A000F08F8B4C2378012B40F233818A4A8B4855
:1051B0001378012123F00203137021700025FFF7FB
:1051C000C3F9DCE7894802F01FFE30B1884B0122A9
:1051D0001A60BFF36F8FBFF34F8F7D4B1D78002D8B
:1051E000CCD17C494FF4876002F016FDC7E7784BBD
:1051F0001B78002BC2D0774940F24C4002F00CFDE6
:105200000025BCE7012BC7D1714B1A78032AC3D004
:10521000714972480A78032422F002020A701C7055
:105220000625FFF791F9AAE74FF08043D3F8383409
:1052300013F001032DD0664B1A78022A9ED06649DE
:1052400066480A78022422F002020A701C700025C7
:10525000FFF77AF993E7C87803280C469CD08B783F
:105260005B0627D15E4E3368002B00F0958000224C
:105270003260716898470546002841D13368002B99
:105280003FF472AFA378002B7FF478AF08F0E2F917
:1052900075E74F4A117801293FF470AF4E4C4F48E3
:1052A0002178012621F002011D4621701670FFF7BA
:1052B0004BF964E740F27540464902F0ADFCE078F6
:1052C000D0E7444940F2823002F0A6FC05A8FEF780
:1052D000DDFF0546A5B92568002D00F0A48008F083
:1052E000F5F9054600287FF449AFCFE79DF819008E
:1052F000010740F0A28012F0600F00F0D580062573
:1053000008F0DAF93BE703A99DF81900FEF740FF22
:105310000646002800F08F8005AA9DF80C10FEF7C5
:105320005DFF06280546D5D19DF8153013F0600FB6
:10533000E6D1274A9DF80C101278DF099DF8163047
:1053400040F0F8800B2BDBD1052A00F0C481082542
:10535000D6E7002D00F0A080C2F34115002DB5D195
:10536000D20974D19DF81630013B082BAED801A2AA
:1053700052F823F0B3530000CD5200009D530000BB
:10538000CD520000C3520000CD520000CD520000AB
:10539000CD520000F55300000E25B1E7BDF81730DF
:1053A000012B93D1FEF7D4FE002840F0B5810F25E4
:1053B000A6E7BDF81730012B88D1FEF7C9FE0028FB
:1053C000F5D0054A137823F00203137083E700BF7A
:1053D0005C0B0020FC420100780B00204C420100D5
:1053E0007C0B00203001001034010010840B0020E1
:1053F0005C700240BE4D2B78043B012BA7D89DF872
:105400001730002B00F09A81012B00F08B810725CB
:1054100076E7B84940F2664002F0FEFB2378012BA4
:105420003FF4ACAEC2E608F03DF9A8E6B249B34895
:105430000A780424F0E6102562E705A9FEF7F6FED7
:10544000062805467FF446AF9DF8152053E79DF8E2
:105450001610062958D0082945D000297FF436AF08
:10546000A74D022228460DF075FDA34A2B7812782D
:10547000900743F0010148BF43F0030329700DF189
:10548000150048BF2B7002229D49FFF7EDFD054630
:10549000062D7FF41FAF19E7964940F25E3002F007
:1054A000BBFB9DF8152057E79DF81620904B9DF803
:1054B00019501B78012A51D066D3032A7FF41FAFFD
:1054C00005F00F02072A3FF61AAFBDF817100029A2
:1054D0007FF415AF052B02D0002A7FF438AF2846A1
:1054E00008F01AF8F7E6824B1B78052B5DD0042BE9
:1054F0007FF4ECAE824B1D700DF115000122804946
:10550000FFF7B2FD0546C3E79DF81830022B72D0B5
:10551000032B5AD0012B7FF4D9AEBDF81B30002BE2
:105520003FF4D9AE0DF1150012227649FFF79CFD2C
:105530000546ADE7002B3BD00A2B7FF4E1AE052AF0
:105540007FF405AF3046FEF73BFF6D493A460870E1
:105550000DF11500FFF788FD0546BBE605F00F02CB
:10556000072A3FF6CCAEBDF8171000297FF4C7AE6E
:10557000052B02D0002A7FF4EAAE284608F01EF878
:10558000284608F003FCA6E6052B02D02A077FF484
:10559000DEAE284607F0E4FF5949022208800DF1EB
:1055A0001500FFF761FD054694E6554B1A70A3E719
:1055B000052A7FF4CCAE524D0DF1150029462B8003
:1055C0000222FFF751FD054684E6BDF81B30002B93
:1055D0003FF481AEBDF819109DF8170001F0C8FF27
:1055E000014600283FF472AE0DF115000A78FFF76E
:1055F0003BFD05464CE7BDF81B30002B3FF46BAE7E
:10560000092B28BF09230193FEF7BCFDDFF8E4B0A6
:1056100006464FF0090AA946EEB17368002B48D040
:105620005B68002B3FD00DF12008002748F8147D5F
:1056300000E0013772680123556831460022404678
:10564000A8470028F5D1337A326899441668BA44DD
:105650005FFA89F9E0E72A4E2B49019A30460DF0AE
:105660006EFC86F80490A6F802A0FEF771FD18B152
:10567000F37943F02003F371FEF784FD234BBDF86B
:105680001B2001991860002099605E60DA6001F0CB
:10569000AFFF1F498020FEF73BFE054680B100208A
:1056A00001F0C0FFF4E659464FF4327002F0B4FA4C
:1056B000B9E7594640F2C72002F0AEFA7368AFE787
:1056C00008F004F8802805BF124B93E8030010256A
:1056D00084E80300E3E7BDF81730FF2B3FF697AEF1
:1056E00030469DF81720FEF727FE0546F2E500BF7D
:1056F0005C0B0020FC420100780B00204C420100B2
:10570000880B00207042010050420100600B002015
:105710006443010084420100114A137843F00203FC
:105720001370D8E5FEF752FE2B78052B3FF4D3AD6E
:1057300005230C482B70FEF707FFCCE5FEF7B4FEFF
:105740002B78042B3FF4C7AD054A06481378042193
:1057500023F0020313702970FEF7F6FEBBE500BFCD
:10576000780B00204C42010008B14023036001483F
:10577000704700BF880B002038B5044620B90D499A
:105780004FF4887002F048FA257A3DB1A27A012AD6
:1057900004F1090309D800231B78FFDE054940F214
:1057A000431002F039FA6B78FFDEE27A134458783E
:1057B00038BD00BF804301002DE9F043CF4E0D46B8
:1057C000097A317083B00446002800F05A812168BC
:1057D00040F6E800814200F05E8140F2A88040F689
:1057E000F900814200F0968140F2E08040F6FB0033
:1057F000814200F0B980C0F0778140F6FC00814220
:1058000000F06C8140F6FD00814240F0DD80002A0E
:1058100000F0C4812779012000215754DFF8ECE221
:10582000B74F9EF800103F780131C9B28EF80010D2
:105830008F4200F2E480B3490F780137FFB20F7056
:105840003178B94240F2A58109218342217140F2A9
:10585000158200F1010E002A00F015822179115401
:1058600073454FF00401217140F29A810EF1010756
:1058700002F80E10A349287A0978884240F2CE81B6
:1058800001EB410005F10901DFF87CE211F800C0ED
:1058900084F804C00144BB42CEF8001040F2D78126
:1058A000791C002A00F0DE812079D0558B424FF020
:1058B0000000207140F2C18101F1010E924F50545D
:1058C000396873454878207140F2AD810EF10107C7
:1058D0000821BB4202F80E00217140F24681781C7B
:1058E000D155834295F82810217140F2348100F19E
:1058F000010E1154734595F82910217140F2218150
:105900000EF101070020BB4202F80E10207140F298
:1059100013810146781CD1557B4F79493F68DFF8E8
:10592000ECE17F780F7000218EF8001080E740F6E0
:10593000E300814200F0FD8052D940F6E50081424B
:105940002CD0C0F0B78040F6E600814200F0AB807A
:1059500040F6E700814237D1002A00F05D812179CD
:105960004FF0010E0020C4E7002A00F0A08120794A
:1059700001274FF0000E0021BB4202F80E002171FA
:1059800040F2EE800846791CD0558B424FF0000063
:10599000207140F2DB800746481C3EE7002A00F0F9
:1059A0002B81207901274FF0000E91E740F6F4009B
:1059B000814200F0A08040F6F500814200F0AE8008
:1059C00040F6E900814204D00020206003B0BDE829
:1059D000F083002A00F06D812179012000279AE7E9
:1059E00040F6DD00814275D040F6DE00814269D08C
:1059F0000029E9D143480F460170084620E70721F6
:105A00008342217140F2C080471C002A00F02F81A0
:105A1000217911549F424FF00501217180F0AF8030
:105A200007F10109D15538483849D0F800800F787E
:105A3000B8F1000F00F02E8198F80110B94275D925
:105A400098F8021047444B45795C217140F2FA8086
:105A500009F10101002A00F0FF80207902F8090015
:105A60008B424FF00200207140F2E280074601F1C4
:105A7000010E40207345575420717BD90EF1010768
:105A800079E7234940F6D6008DE80C0002F0C4F80F
:105A90009DE80C009BE6002A00F0998021790127FF
:105AA0004FF0000E2EE7002A00F0988021790120A7
:105AB000002715E7002A00F0A68020794FF0010E9C
:105AC0000021FBE6002A00F08080217901274FF0B9
:105AD000000ECDE64FF0010E0020BCE601210027AC
